{
  "contractName": "User",
  "abi": [
    {
      "inputs": [],
      "name": "nextUserId",
      "outputs": [
        {
          "internalType": "uint256",
          "name": "",
          "type": "uint256"
        }
      ],
      "stateMutability": "view",
      "type": "function",
      "constant": true
    },
    {
      "inputs": [
        {
          "internalType": "uint256",
          "name": "",
          "type": "uint256"
        }
      ],
      "name": "users",
      "outputs": [
        {
          "internalType": "uint256",
          "name": "id",
          "type": "uint256"
        },
        {
          "internalType": "string",
          "name": "wallet",
          "type": "string"
        },
        {
          "internalType": "uint256",
          "name": "coins",
          "type": "uint256"
        },
        {
          "internalType": "string",
          "name": "name",
          "type": "string"
        },
        {
          "internalType": "string",
          "name": "email",
          "type": "string"
        },
        {
          "internalType": "string",
          "name": "phoneNumber",
          "type": "string"
        },
        {
          "internalType": "uint256",
          "name": "spent",
          "type": "uint256"
        },
        {
          "internalType": "string",
          "name": "image",
          "type": "string"
        }
      ],
      "stateMutability": "view",
      "type": "function",
      "constant": true
    },
    {
      "inputs": [
        {
          "internalType": "string",
          "name": "email",
          "type": "string"
        }
      ],
      "name": "isUserPresent",
      "outputs": [
        {
          "internalType": "bool",
          "name": "",
          "type": "bool"
        }
      ],
      "stateMutability": "view",
      "type": "function",
      "constant": true
    },
    {
      "inputs": [
        {
          "internalType": "string",
          "name": "_wallet",
          "type": "string"
        },
        {
          "internalType": "uint256",
          "name": "_coins",
          "type": "uint256"
        },
        {
          "internalType": "string",
          "name": "_name",
          "type": "string"
        },
        {
          "internalType": "string",
          "name": "_email",
          "type": "string"
        },
        {
          "internalType": "string",
          "name": "_phoneNumber",
          "type": "string"
        },
        {
          "internalType": "uint256",
          "name": "_spent",
          "type": "uint256"
        },
        {
          "internalType": "string",
          "name": "_image",
          "type": "string"
        }
      ],
      "name": "addUser",
      "outputs": [
        {
          "internalType": "bool",
          "name": "",
          "type": "bool"
        }
      ],
      "stateMutability": "nonpayable",
      "type": "function"
    },
    {
      "inputs": [
        {
          "internalType": "string",
          "name": "_wallet",
          "type": "string"
        }
      ],
      "name": "isuserpresent2",
      "outputs": [
        {
          "internalType": "bool",
          "name": "",
          "type": "bool"
        }
      ],
      "stateMutability": "view",
      "type": "function",
      "constant": true
    },
    {
      "inputs": [
        {
          "internalType": "string",
          "name": "_email",
          "type": "string"
        }
      ],
      "name": "getUserDetails",
      "outputs": [
        {
          "components": [
            {
              "internalType": "uint256",
              "name": "id",
              "type": "uint256"
            },
            {
              "internalType": "string",
              "name": "wallet",
              "type": "string"
            },
            {
              "internalType": "uint256",
              "name": "coins",
              "type": "uint256"
            },
            {
              "internalType": "string",
              "name": "name",
              "type": "string"
            },
            {
              "internalType": "string",
              "name": "email",
              "type": "string"
            },
            {
              "internalType": "string",
              "name": "phoneNumber",
              "type": "string"
            },
            {
              "internalType": "uint256",
              "name": "spent",
              "type": "uint256"
            },
            {
              "internalType": "string",
              "name": "image",
              "type": "string"
            },
            {
              "internalType": "uint256[]",
              "name": "purchases",
              "type": "uint256[]"
            }
          ],
          "internalType": "struct User.Details",
          "name": "",
          "type": "tuple"
        }
      ],
      "stateMutability": "view",
      "type": "function",
      "constant": true
    },
    {
      "inputs": [
        {
          "internalType": "string",
          "name": "_email",
          "type": "string"
        },
        {
          "internalType": "string",
          "name": "_wallet",
          "type": "string"
        },
        {
          "internalType": "uint256",
          "name": "_coins",
          "type": "uint256"
        },
        {
          "internalType": "string",
          "name": "_name",
          "type": "string"
        },
        {
          "internalType": "string",
          "name": "_phoneNumber",
          "type": "string"
        },
        {
          "internalType": "uint256",
          "name": "_spent",
          "type": "uint256"
        },
        {
          "internalType": "string",
          "name": "_image",
          "type": "string"
        },
        {
          "internalType": "uint256",
          "name": "_purchase",
          "type": "uint256"
        }
      ],
      "name": "updateUserDetails",
      "outputs": [
        {
          "internalType": "bool",
          "name": "",
          "type": "bool"
        }
      ],
      "stateMutability": "nonpayable",
      "type": "function"
    }
  ],
  "bytecode": "0x6080604052600160045534801561001557600080fd5b50611521806100256000396000f3fe608060405234801561001057600080fd5b506004361061009a576000357c010000000000000000000000000000000000000000000000000000000090048063572199a911610078578063572199a914610112578063a1e6a25514610125578063af09b8491461013c578063b6d8c16a1461014f57600080fd5b8063085ba0741461009f578063365b98b2146100c857806340b3618d146100ef575b600080fd5b6100b26100ad366004610e9d565b610162565b6040516100bf9190610f65565b60405180910390f35b6100db6100d636600461103f565b610532565b6040516100bf989796959493929190611058565b6101026100fd366004610e9d565b61082e565b60405190151581526020016100bf565b6101026101203660046110dd565b610872565b61012e60045481565b6040519081526020016100bf565b61010261014a366004610e9d565b610a71565b61010261015d3660046111cc565b610a82565b6101b16040518061012001604052806000815260200160608152602001600081526020016060815260200160608152602001606081526020016000815260200160608152602001606081525090565b6001826040516101c191906112b1565b908152602001604051809103902060405180610120016040529081600082015481526020016001820180546101f5906112cd565b80601f0160208091040260200160405190810160405280929190818152602001828054610221906112cd565b801561026e5780601f106102435761010080835404028352916020019161026e565b820191906000526020600020905b81548152906001019060200180831161025157829003601f168201915b5050505050815260200160028201548152602001600382018054610291906112cd565b80601f01602080910402602001604051908101604052809291908181526020018280546102bd906112cd565b801561030a5780601f106102df5761010080835404028352916020019161030a565b820191906000526020600020905b8154815290600101906020018083116102ed57829003601f168201915b50505050508152602001600482018054610323906112cd565b80601f016020809104026020016040519081016040528092919081815260200182805461034f906112cd565b801561039c5780601f106103715761010080835404028352916020019161039c565b820191906000526020600020905b81548152906001019060200180831161037f57829003601f168201915b505050505081526020016005820180546103b5906112cd565b80601f01602080910402602001604051908101604052809291908181526020018280546103e1906112cd565b801561042e5780601f106104035761010080835404028352916020019161042e565b820191906000526020600020905b81548152906001019060200180831161041157829003601f168201915b5050505050815260200160068201548152602001600782018054610451906112cd565b80601f016020809104026020016040519081016040528092919081815260200182805461047d906112cd565b80156104ca5780601f1061049f576101008083540402835291602001916104ca565b820191906000526020600020905b8154815290600101906020018083116104ad57829003601f168201915b505050505081526020016008820180548060200260200160405190810160405280929190818152602001828054801561052257602002820191906000526020600020905b81548152602001906001019080831161050e575b5050505050815250509050919050565b6003818154811061054257600080fd5b60009182526020909120600990910201805460018201805491935090610567906112cd565b80601f0160208091040260200160405190810160405280929190818152602001828054610593906112cd565b80156105e05780601f106105b5576101008083540402835291602001916105e0565b820191906000526020600020905b8154815290600101906020018083116105c357829003601f168201915b5050505050908060020154908060030180546105fb906112cd565b80601f0160208091040260200160405190810160405280929190818152602001828054610627906112cd565b80156106745780601f1061064957610100808354040283529160200191610674565b820191906000526020600020905b81548152906001019060200180831161065757829003601f168201915b505050505090806004018054610689906112cd565b80601f01602080910402602001604051908101604052809291908181526020018280546106b5906112cd565b80156107025780601f106106d757610100808354040283529160200191610702565b820191906000526020600020905b8154815290600101906020018083116106e557829003601f168201915b505050505090806005018054610717906112cd565b80601f0160208091040260200160405190810160405280929190818152602001828054610743906112cd565b80156107905780601f1061076557610100808354040283529160200191610790565b820191906000526020600020905b81548152906001019060200180831161077357829003601f168201915b5050505050908060060154908060070180546107ab906112cd565b80601f01602080910402602001604051908101604052809291908181526020018280546107d7906112cd565b80156108245780601f106107f957610100808354040283529160200191610824565b820191906000526020600020905b81548152906001019060200180831161080757829003601f168201915b5050505050905088565b60008060028360405161084191906112b1565b90815260405190819003602001812061085991611320565b9081526040519081900360200190205460ff1692915050565b6000808960405161088391906112b1565b9081526040519081900360200190205460ff166108a257506000610a65565b6001896040516108b291906112b1565b9081526040805191829003602090810183206008018054600181810183556000928352929091200185905561012083019182905282916108f3908d906112b1565b90815260200160405180910390206000015481526020018981526020018881526020018781526020018a815260200186815260200185815260200184815260200160018b60405161094491906112b1565b908152604080519182900360209081018320600801805480830285018301909352828452919083018282801561099957602002820191906000526020600020905b815481526020019060010190808311610985575b505050505081525060018a6040516109b191906112b1565b90815260405160209181900382019020825181559082015160018201906109d890826113e5565b5060408201516002820155606082015160038201906109f790826113e5565b5060808201516004820190610a0c90826113e5565b5060a08201516005820190610a2190826113e5565b5060c0820151600682015560e08201516007820190610a4090826113e5565b506101008201518051610a5d916008840191602090910190610d81565b506001925050505b98975050505050505050565b6000808260405161085991906112b1565b60008085604051610a9391906112b1565b9081526040519081900360200190205460ff1615610ab357506000610d76565b60408051610120810182526004548152602081018a815291810189905260608181018990526080820188905260a0820187905260c0820186905260e08201859052610100820181905260038054600181018255600091909152825160099091027fc2575a0e9e593c00f959f8c92f12db2869c3395a3b0502d05e2516446f71f85b81019182559351919390917fc2575a0e9e593c00f959f8c92f12db2869c3395a3b0502d05e2516446f71f85c90910190610b6e90826113e5565b506040820151600282015560608201516003820190610b8d90826113e5565b5060808201516004820190610ba290826113e5565b5060a08201516005820190610bb790826113e5565b5060c0820151600682015560e08201516007820190610bd690826113e5565b506101008201518051610bf3916008840191602090910190610d81565b5050506001600087604051610c0891906112b1565b908152602001604051809103902060006101000a81548160ff02191690831515021790555060405180610120016040528060045481526020018a815260200189815260200188815260200187815260200186815260200185815260200184815260200182815250600187604051610c7f91906112b1565b9081526040516020918190038201902082518155908201516001820190610ca690826113e5565b506040820151600282015560608201516003820190610cc590826113e5565b5060808201516004820190610cda90826113e5565b5060a08201516005820190610cef90826113e5565b5060c0820151600682015560e08201516007820190610d0e90826113e5565b506101008201518051610d2b916008840191602090910190610d81565b509050508560028a604051610d4091906112b1565b90815260200160405180910390209081610d5a91906113e5565b5060048054906000610d6b836114ab565b919050555060019150505b979650505050505050565b828054828255906000526020600020908101928215610dbc579160200282015b82811115610dbc578251825591602001919060010190610da1565b50610dc8929150610dcc565b5090565b5b80821115610dc85760008155600101610dcd565b7f4e487b7100000000000000000000000000000000000000000000000000000000600052604160045260246000fd5b600082601f830112610e2157600080fd5b813567ffffffffffffffff80821115610e3c57610e3c610de1565b604051601f8301601f19908116603f01168101908282118183101715610e6457610e64610de1565b81604052838152866020858801011115610e7d57600080fd5b836020870160208301376000602085830101528094505050505092915050565b600060208284031215610eaf57600080fd5b813567ffffffffffffffff811115610ec657600080fd5b610ed284828501610e10565b949350505050565b60005b83811015610ef5578181015183820152602001610edd565b50506000910152565b60008151808452610f16816020860160208601610eda565b601f01601f19169290920160200192915050565b600081518084526020808501945080840160005b83811015610f5a57815187529582019590820190600101610f3e565b509495945050505050565b602081528151602082015260006020830151610120806040850152610f8e610140850183610efe565b9150604085015160608501526060850151601f1980868503016080870152610fb68483610efe565b935060808701519150808685030160a0870152610fd38483610efe565b935060a08701519150808685030160c0870152610ff08483610efe565b935060c087015160e087015260e087015191506101008187860301818801526110198584610efe565b9088015187820390920184880152935090506110358382610f2a565b9695505050505050565b60006020828403121561105157600080fd5b5035919050565b60006101008a83528060208401526110728184018b610efe565b9050886040840152828103606084015261108c8189610efe565b905082810360808401526110a08188610efe565b905082810360a08401526110b48187610efe565b90508460c084015282810360e08401526110ce8185610efe565b9b9a5050505050505050505050565b600080600080600080600080610100898b0312156110fa57600080fd5b883567ffffffffffffffff8082111561111257600080fd5b61111e8c838d01610e10565b995060208b013591508082111561113457600080fd5b6111408c838d01610e10565b985060408b0135975060608b013591508082111561115d57600080fd5b6111698c838d01610e10565b965060808b013591508082111561117f57600080fd5b61118b8c838d01610e10565b955060a08b0135945060c08b01359150808211156111a857600080fd5b506111b58b828c01610e10565b92505060e089013590509295985092959890939650565b600080600080600080600060e0888a0312156111e757600080fd5b873567ffffffffffffffff808211156111ff57600080fd5b61120b8b838c01610e10565b985060208a0135975060408a013591508082111561122857600080fd5b6112348b838c01610e10565b965060608a013591508082111561124a57600080fd5b6112568b838c01610e10565b955060808a013591508082111561126c57600080fd5b6112788b838c01610e10565b945060a08a0135935060c08a013591508082111561129557600080fd5b506112a28a828b01610e10565b91505092959891949750929550565b600082516112c3818460208701610eda565b9190910192915050565b6002810460018216806112e157607f821691505b60208210810361131a577f4e487b7100000000000000000000000000000000000000000000000000000000600052602260045260246000fd5b50919050565b600080835461132e816112cd565b60018281168015611346576001811461135b5761138a565b60ff198416875282151583028701945061138a565b8760005260208060002060005b858110156113815781548a820152908401908201611368565b50505082870194505b50929695505050505050565b601f8211156113e0576000818152602081206020601f860104810160208610156113bd5750805b6020601f860104820191505b818110156113dc578281556001016113c9565b5050505b505050565b815167ffffffffffffffff8111156113ff576113ff610de1565b6114138161140d84546112cd565b84611396565b602080601f83116001811461144c57600084156114305750858301515b60028086026008870290910a60001904198216178655506113dc565b600085815260208120601f198616915b8281101561147b5788860151825594840194600190910190840161145c565b508582101561149b57878501516008601f88160260020a60001904191681555b5050505050600202600101905550565b6000600182016114e4577f4e487b7100000000000000000000000000000000000000000000000000000000600052601160045260246000fd5b506001019056fea26469706673582212203bc32219c11e8dc880b33ed9d66280ef6c617bfdf7261d476c49ef15901dcc6164736f6c63430008150033",
  "immutableReferences": {},
  "source": "// SPDX-License-Identifier: MIT \r\npragma solidity >=0.5.0 <0.9.0;\r\n\r\ncontract User {\r\n\r\n    struct Details {\r\n        uint256 id;\r\n        string wallet;\r\n        uint256 coins;\r\n        string name;\r\n        string email;\r\n        string phoneNumber;\r\n        uint256 spent;\r\n        string image;\r\n        uint256[] purchases;\r\n    }\r\n\r\n    mapping(string => bool) private userEmailExists;\r\n    mapping(string => Details) private userDetails; \r\n    mapping(string => string) private usedAddress ;\r\n    Details[] public users;\r\n    uint256 public nextUserId = 1;\r\n\r\n    function isUserPresent(string memory email) public view returns (bool) {\r\n        return userEmailExists[email];\r\n    }\r\n\r\n    function addUser(string memory _wallet, uint256 _coins, string memory _name, string memory _email, string memory _phoneNumber, uint256 _spent, string memory _image ) public returns (bool) {\r\n        if (userEmailExists[_email]) {\r\n            return false; \r\n        }\r\n        uint256[] memory _purchases  ;\r\n\r\n        users.push(Details(nextUserId, _wallet, _coins, _name, _email, _phoneNumber, _spent, _image, _purchases));\r\n        userEmailExists[_email] = true;\r\n        userDetails[_email] = Details(nextUserId, _wallet, _coins, _name, _email, _phoneNumber, _spent, _image, _purchases);\r\n        usedAddress[_wallet] = _email ;\r\n        nextUserId++;\r\n\r\n        return true; \r\n    }\r\n    function isuserpresent2(string memory _wallet) public view returns (bool) {\r\n        return userEmailExists[usedAddress[_wallet]];\r\n    }\r\n\r\n    \r\n    function getUserDetails(string memory _email) public view returns (Details memory) {\r\n        return userDetails[_email];\r\n    }\r\n\r\n    \r\n    function updateUserDetails(string memory _email, string memory _wallet, uint256 _coins, string memory _name, string memory _phoneNumber, uint256 _spent, string memory _image, uint256 _purchase) public returns (bool) {\r\n        if(!userEmailExists[_email])\r\n        {\r\n            return false ;\r\n        }\r\n        userDetails[_email].purchases.push(_purchase);\r\n\r\n        userDetails[_email] = Details(userDetails[_email].id, _wallet, _coins, _name, _email, _phoneNumber, _spent, _image, userDetails[_email].purchases);\r\n        \r\n        return true; \r\n    }\r\n\r\n\r\n}\r\n",
  "sourcePath": "C:\\IIITB\\FGrid\\one\\contracts\\user.sol",
  "compiler": {
    "name": "solc",
    "version": "0.8.21+commit.d9974bed.Emscripten.clang"
  },
  "schemaVersion": "3.4.15",
  "updatedAt": "2023-08-17T16:59:35.420Z",
  "networkType": "ethereum",
  "devdoc": {
    "kind": "dev",
    "methods": {},
    "version": 1
  },
  "userdoc": {
    "kind": "user",
    "methods": {},
    "version": 1
  }
}